{
  "contractName": "RentContract",
  "abi": [
    {
      "constant": true,
      "inputs": [
        {
          "internalType": "int256",
          "name": "",
          "type": "int256"
        }
      ],
      "name": "Houses",
      "outputs": [
        {
          "internalType": "int256",
          "name": "id",
          "type": "int256"
        },
        {
          "internalType": "string",
          "name": "houseAddress",
          "type": "string"
        },
        {
          "internalType": "uint256",
          "name": "rentCost",
          "type": "uint256"
        },
        {
          "internalType": "address payable",
          "name": "ownerAddress",
          "type": "address"
        },
        {
          "internalType": "address",
          "name": "renterAddress",
          "type": "address"
        },
        {
          "internalType": "uint256",
          "name": "rentEndsAt",
          "type": "uint256"
        }
      ],
      "payable": false,
      "stateMutability": "view",
      "type": "function"
    },
    {
      "constant": true,
      "inputs": [],
      "name": "HousesCount",
      "outputs": [
        {
          "internalType": "int256",
          "name": "",
          "type": "int256"
        }
      ],
      "payable": false,
      "stateMutability": "view",
      "type": "function"
    },
    {
      "constant": true,
      "inputs": [
        {
          "internalType": "int256",
          "name": "id",
          "type": "int256"
        }
      ],
      "name": "GetHouseAddress",
      "outputs": [
        {
          "internalType": "string",
          "name": "",
          "type": "string"
        }
      ],
      "payable": false,
      "stateMutability": "view",
      "type": "function"
    },
    {
      "constant": true,
      "inputs": [
        {
          "internalType": "int256",
          "name": "id",
          "type": "int256"
        }
      ],
      "name": "GetRentCost",
      "outputs": [
        {
          "internalType": "int256",
          "name": "",
          "type": "int256"
        }
      ],
      "payable": false,
      "stateMutability": "view",
      "type": "function"
    },
    {
      "constant": false,
      "inputs": [
        {
          "internalType": "string",
          "name": "houseAddress",
          "type": "string"
        },
        {
          "internalType": "uint256",
          "name": "rentCost",
          "type": "uint256"
        }
      ],
      "name": "AddHouse",
      "outputs": [],
      "payable": false,
      "stateMutability": "nonpayable",
      "type": "function"
    },
    {
      "constant": false,
      "inputs": [
        {
          "internalType": "int256",
          "name": "id",
          "type": "int256"
        },
        {
          "internalType": "uint256",
          "name": "newCost",
          "type": "uint256"
        }
      ],
      "name": "UpdateCost",
      "outputs": [
        {
          "internalType": "bool",
          "name": "",
          "type": "bool"
        }
      ],
      "payable": false,
      "stateMutability": "nonpayable",
      "type": "function"
    },
    {
      "constant": false,
      "inputs": [
        {
          "internalType": "int256",
          "name": "id",
          "type": "int256"
        }
      ],
      "name": "RemoveHouse",
      "outputs": [
        {
          "internalType": "bool",
          "name": "",
          "type": "bool"
        }
      ],
      "payable": false,
      "stateMutability": "nonpayable",
      "type": "function"
    },
    {
      "constant": false,
      "inputs": [
        {
          "internalType": "int256",
          "name": "id",
          "type": "int256"
        }
      ],
      "name": "RentFrom",
      "outputs": [],
      "payable": true,
      "stateMutability": "payable",
      "type": "function"
    },
    {
      "constant": true,
      "inputs": [],
      "name": "AvailableHouses",
      "outputs": [
        {
          "internalType": "int256[]",
          "name": "",
          "type": "int256[]"
        }
      ],
      "payable": false,
      "stateMutability": "view",
      "type": "function"
    }
  ],
  "bytecode": "0x608060405234801561001057600080fd5b50610fa2806100206000396000f3fe6080604052600436106100865760003560e01c8063760398741161005957806376039874146102da578063c303936514610409578063ded480d114610458578063e6025f5c146104ab578063f16e9fae146104d657610086565b8063105548261461008b578063466d847c146100f757806361df9bc314610154578063675c363914610208575b600080fd5b34801561009757600080fd5b506100a0610504565b6040518080602001828103825283818151815260200191508051906020019060200280838360005b838110156100e35780820151818401526020810190506100c8565b505050509050019250505060405180910390f35b34801561010357600080fd5b5061013a6004803603604081101561011a57600080fd5b8101908080359060200190929190803590602001909291905050506105fb565b604051808215151515815260200191505060405180910390f35b34801561016057600080fd5b5061018d6004803603602081101561017757600080fd5b81019080803590602001909291905050506106b4565b6040518080602001828103825283818151815260200191508051906020019080838360005b838110156101cd5780820151818401526020810190506101b2565b50505050905090810190601f1680156101fa5780820380516001836020036101000a031916815260200191505b509250505060405180910390f35b34801561021457600080fd5b506102d86004803603604081101561022b57600080fd5b810190808035906020019064010000000081111561024857600080fd5b82018360208201111561025a57600080fd5b8035906020019184600183028401116401000000008311171561027c57600080fd5b91908080601f016020809104026020016040519081016040528093929190818152602001838380828437600081840152601f19601f8201169050808301925050505050505091929192908035906020019092919050505061076b565b005b3480156102e657600080fd5b50610313600480360360208110156102fd57600080fd5b81019080803590602001909291905050506108ca565b60405180878152602001806020018681526020018573ffffffffffffffffffffffffffffffffffffffff1673ffffffffffffffffffffffffffffffffffffffff1681526020018473ffffffffffffffffffffffffffffffffffffffff1673ffffffffffffffffffffffffffffffffffffffff168152602001838152602001828103825287818151815260200191508051906020019080838360005b838110156103c95780820151818401526020810190506103ae565b50505050905090810190601f1680156103f65780820380516001836020036101000a031916815260200191505b5097505050505050505060405180910390f35b34801561041557600080fd5b506104426004803603602081101561042c57600080fd5b81019080803590602001909291905050506109de565b6040518082815260200191505060405180910390f35b34801561046457600080fd5b506104916004803603602081101561047b57600080fd5b81019080803590602001909291905050506109fd565b604051808215151515815260200191505060405180910390f35b3480156104b757600080fd5b506104c0610b26565b6040518082815260200191505060405180910390f35b610502600480360360208110156104ec57600080fd5b8101908080359060200190929190505050610b2c565b005b6060600080600190505b600154811361054a574260008083815260200190815260200160002060050154101561053d5781806001019250505b808060010191505061050e565b5060608160405190808252806020026020018201604052801561057c5781602001602082028038833980820191505090505b509050600080600190505b60015481136105f157426000808381526020019081526020016000206005015410156105e457600080828152602001908152602001600020600001548383815181106105cf57fe5b60200260200101818152505081806001019250505b8080600101915050610587565b5081935050505090565b60003373ffffffffffffffffffffffffffffffffffffffff1660008085815260200190815260200160002060030160009054906101000a900473ffffffffffffffffffffffffffffffffffffffff1673ffffffffffffffffffffffffffffffffffffffff1614158061068157504260008085815260200190815260200160002060050154115b1561068f57600090506106ae565b8160008085815260200190815260200160002060020181905550600190505b92915050565b60606000808381526020019081526020016000206001018054600181600116156101000203166002900480601f01602080910402602001604051908101604052809291908181526020018280546001816001161561010002031660029004801561075f5780601f106107345761010080835404028352916020019161075f565b820191906000526020600020905b81548152906001019060200180831161074257829003601f168201915b50505050509050919050565b600160008154809291906001019190505550610785610e1e565b6040518060c0016040528060015481526020018481526020018381526020013373ffffffffffffffffffffffffffffffffffffffff168152602001600073ffffffffffffffffffffffffffffffffffffffff1681526020016000815250905080600080600154815260200190815260200160002060008201518160000155602082015181600101908051906020019061081f929190610e80565b506040820151816002015560608201518160030160006101000a81548173ffffffffffffffffffffffffffffffffffffffff021916908373ffffffffffffffffffffffffffffffffffffffff16021790555060808201518160040160006101000a81548173ffffffffffffffffffffffffffffffffffffffff021916908373ffffffffffffffffffffffffffffffffffffffff16021790555060a08201518160050155905050505050565b6000602052806000526040600020600091509050806000015490806001018054600181600116156101000203166002900480601f01602080910402602001604051908101604052809291908181526020018280546001816001161561010002031660029004801561097c5780601f106109515761010080835404028352916020019161097c565b820191906000526020600020905b81548152906001019060200180831161095f57829003601f168201915b5050505050908060020154908060030160009054906101000a900473ffffffffffffffffffffffffffffffffffffffff16908060040160009054906101000a900473ffffffffffffffffffffffffffffffffffffffff16908060050154905086565b6000806000838152602001908152602001600020600201549050919050565b60003373ffffffffffffffffffffffffffffffffffffffff1660008084815260200190815260200160002060030160009054906101000a900473ffffffffffffffffffffffffffffffffffffffff1673ffffffffffffffffffffffffffffffffffffffff16141580610a8357504260008084815260200190815260200160002060050154115b15610a915760009050610b21565b600080838152602001908152602001600020600080820160009055600182016000610abc9190610f00565b60028201600090556003820160006101000a81549073ffffffffffffffffffffffffffffffffffffffff02191690556004820160006101000a81549073ffffffffffffffffffffffffffffffffffffffff021916905560058201600090555050600190505b919050565b60015481565b610b34610e1e565b6000808381526020019081526020016000206040518060c001604052908160008201548152602001600182018054600181600116156101000203166002900480601f016020809104026020016040519081016040528092919081815260200182805460018160011615610100020316600290048015610bf45780601f10610bc957610100808354040283529160200191610bf4565b820191906000526020600020905b815481529060010190602001808311610bd757829003601f168201915b50505050508152602001600282015481526020016003820160009054906101000a900473ffffffffffffffffffffffffffffffffffffffff1673ffffffffffffffffffffffffffffffffffffffff1673ffffffffffffffffffffffffffffffffffffffff1681526020016004820160009054906101000a900473ffffffffffffffffffffffffffffffffffffffff1673ffffffffffffffffffffffffffffffffffffffff1673ffffffffffffffffffffffffffffffffffffffff168152602001600582015481525050905042600080848152602001908152602001600020600501541180610d4257503373ffffffffffffffffffffffffffffffffffffffff1660008084815260200190815260200160002060040160009054906101000a900473ffffffffffffffffffffffffffffffffffffffff1673ffffffffffffffffffffffffffffffffffffffff16145b15610d4d5750610e1b565b806060015173ffffffffffffffffffffffffffffffffffffffff166108fc670de0b6b3a76400008360400151029081150290604051600060405180830381858888f19350505050158015610da5573d6000803e3d6000fd5b503360008084815260200190815260200160002060040160006101000a81548173ffffffffffffffffffffffffffffffffffffffff021916908373ffffffffffffffffffffffffffffffffffffffff1602179055506224ea00420160008084815260200190815260200160002060050181905550505b50565b6040518060c00160405280600081526020016060815260200160008152602001600073ffffffffffffffffffffffffffffffffffffffff168152602001600073ffffffffffffffffffffffffffffffffffffffff168152602001600081525090565b828054600181600116156101000203166002900490600052602060002090601f016020900481019282601f10610ec157805160ff1916838001178555610eef565b82800160010185558215610eef579182015b82811115610eee578251825591602001919060010190610ed3565b5b509050610efc9190610f48565b5090565b50805460018160011615610100020316600290046000825580601f10610f265750610f45565b601f016020900490600052602060002090810190610f449190610f48565b5b50565b610f6a91905b80821115610f66576000816000905550600101610f4e565b5090565b9056fea265627a7a72315820b62da27d0ab8a091583b23eb82f0fd76dc74e6b0e59bdd1a0b55fafe430ec60164736f6c63430005100032",
  "source": "// SPDX-License-Identifier: GPL-3.0\r\npragma solidity ^0.5.8;\r\n\r\ncontract RentContract\r\n{\r\n    struct House \r\n    {\r\n        int256 id;\r\n        string houseAddress;\r\n        uint256 rentCost;\r\n        address payable ownerAddress;\r\n        address renterAddress;\r\n        uint256 rentEndsAt;\r\n    }\r\n\r\n    mapping(int256 => House) public Houses;\r\n\r\n    int256 public HousesCount;\r\n\r\n    function GetHouseAddress(int256 id) public view returns (string memory)\r\n    {\r\n        return Houses[id].houseAddress;\r\n    }\r\n\r\n    function GetRentCost(int256 id) public view returns (int)\r\n    {\r\n        return int(Houses[id].rentCost);\r\n    }\r\n\r\n    \r\n    function AddHouse(string memory houseAddress, uint256 rentCost) public\r\n    {\r\n        HousesCount++;\r\n\r\n        House memory house = House(HousesCount, houseAddress, rentCost, msg.sender, address(0), 0);\r\n        \r\n        Houses[HousesCount] = house;\r\n    }\r\n\r\n    function UpdateCost(int256 id, uint256 newCost) public returns (bool)\r\n    {\r\n        if (Houses[id].ownerAddress != msg.sender || Houses[id].rentEndsAt > block.timestamp)\r\n        {\r\n            return false;\r\n        }\r\n\r\n        Houses[id].rentCost = newCost;\r\n\r\n        return true;\r\n    }\r\n\r\n    function RemoveHouse(int256 id) public returns (bool)\r\n    {\r\n        if (Houses[id].ownerAddress != msg.sender || Houses[id].rentEndsAt > block.timestamp)\r\n        {\r\n            return false;\r\n        }\r\n\r\n        delete Houses[id];\r\n\r\n        return true;\r\n    }\r\n    \r\n    function RentFrom(int256 id) public payable\r\n    {\r\n        House memory houseToRent = Houses[id];\r\n        \r\n        if (Houses[id].rentEndsAt > block.timestamp || Houses[id].renterAddress == msg.sender)\r\n        {\r\n            return;\r\n        }       \r\n\r\n        houseToRent.ownerAddress.transfer(houseToRent.rentCost * 10**18);\r\n        \r\n        Houses[id].renterAddress = msg.sender;\r\n        \r\n        Houses[id].rentEndsAt = now + (4 * 1 weeks);\r\n    }\r\n\r\n    function AvailableHouses() public view returns(int256[] memory) \r\n    {\r\n        uint256 resultCount;\r\n\r\n        for (int i = 1; i <= HousesCount; i++)\r\n        {\r\n            if (Houses[i].rentEndsAt < block.timestamp) {\r\n                resultCount++;  // step 1 - determine the result count\r\n            }\r\n        }\r\n\r\n        int256[] memory result = new int256[](resultCount);  // step 2 - create the fixed-length array\r\n        uint256 j;\r\n\r\n        for (int i = 1; i <= HousesCount; i++) \r\n        {\r\n            if (Houses[i].rentEndsAt < block.timestamp) {\r\n                result[j] = Houses[i].id;  // step 3 - fill the array\r\n                j++;\r\n            }\r\n        }\r\n        return result; \r\n    }\r\n}",
  "sourcePath": "C:\\Users\\karol\\personal\\Blockchain\\contracts\\RentContract.sol",
  "compiler": {
    "name": "solc",
    "version": "0.5.16+commit.9c3226ce.Emscripten.clang"
  },
  "schemaVersion": "3.4.3",
  "updatedAt": "2021-12-12T10:41:39.961Z",
  "networkType": "ethereum",
  "devdoc": {
    "methods": {}
  },
  "userdoc": {
    "methods": {}
  }
}