{
  "contractName": "RentContract",
  "abi": [
    {
      "constant": true,
      "inputs": [
        {
          "internalType": "int256",
          "name": "",
          "type": "int256"
        }
      ],
      "name": "Houses",
      "outputs": [
        {
          "internalType": "int256",
          "name": "id",
          "type": "int256"
        },
        {
          "internalType": "string",
          "name": "houseAddress",
          "type": "string"
        },
        {
          "internalType": "uint256",
          "name": "rentCost",
          "type": "uint256"
        },
        {
          "internalType": "address payable",
          "name": "ownerAddress",
          "type": "address"
        },
        {
          "internalType": "address",
          "name": "renterAddress",
          "type": "address"
        },
        {
          "internalType": "uint256",
          "name": "rentEndsAt",
          "type": "uint256"
        }
      ],
      "payable": false,
      "stateMutability": "view",
      "type": "function"
    },
    {
      "constant": true,
      "inputs": [],
      "name": "HousesCount",
      "outputs": [
        {
          "internalType": "int256",
          "name": "",
          "type": "int256"
        }
      ],
      "payable": false,
      "stateMutability": "view",
      "type": "function"
    },
    {
      "constant": true,
      "inputs": [
        {
          "internalType": "int256",
          "name": "id",
          "type": "int256"
        }
      ],
      "name": "GetHouseAddress",
      "outputs": [
        {
          "internalType": "string",
          "name": "",
          "type": "string"
        }
      ],
      "payable": false,
      "stateMutability": "view",
      "type": "function"
    },
    {
      "constant": true,
      "inputs": [
        {
          "internalType": "int256",
          "name": "id",
          "type": "int256"
        }
      ],
      "name": "GetRentCost",
      "outputs": [
        {
          "internalType": "int256",
          "name": "",
          "type": "int256"
        }
      ],
      "payable": false,
      "stateMutability": "view",
      "type": "function"
    },
    {
      "constant": false,
      "inputs": [
        {
          "internalType": "string",
          "name": "houseAddress",
          "type": "string"
        },
        {
          "internalType": "uint256",
          "name": "rentCost",
          "type": "uint256"
        }
      ],
      "name": "AddHouse",
      "outputs": [],
      "payable": false,
      "stateMutability": "nonpayable",
      "type": "function"
    },
    {
      "constant": false,
      "inputs": [
        {
          "internalType": "int256",
          "name": "id",
          "type": "int256"
        },
        {
          "internalType": "uint256",
          "name": "newCost",
          "type": "uint256"
        }
      ],
      "name": "UpdateCost",
      "outputs": [
        {
          "internalType": "bool",
          "name": "",
          "type": "bool"
        }
      ],
      "payable": false,
      "stateMutability": "nonpayable",
      "type": "function"
    },
    {
      "constant": false,
      "inputs": [
        {
          "internalType": "int256",
          "name": "id",
          "type": "int256"
        }
      ],
      "name": "RemoveHouse",
      "outputs": [
        {
          "internalType": "bool",
          "name": "",
          "type": "bool"
        }
      ],
      "payable": false,
      "stateMutability": "nonpayable",
      "type": "function"
    },
    {
      "constant": false,
      "inputs": [
        {
          "internalType": "int256",
          "name": "id",
          "type": "int256"
        }
      ],
      "name": "RentFrom",
      "outputs": [],
      "payable": true,
      "stateMutability": "payable",
      "type": "function"
    },
    {
      "constant": true,
      "inputs": [],
      "name": "AvailableHouses",
      "outputs": [
        {
          "internalType": "int256[]",
          "name": "",
          "type": "int256[]"
        }
      ],
      "payable": false,
      "stateMutability": "view",
      "type": "function"
    },
    {
      "constant": true,
      "inputs": [],
      "name": "GetOwnedHouses",
      "outputs": [
        {
          "internalType": "int256[]",
          "name": "",
          "type": "int256[]"
        }
      ],
      "payable": false,
      "stateMutability": "view",
      "type": "function"
    },
    {
      "constant": true,
      "inputs": [],
      "name": "GetRentedHouses",
      "outputs": [
        {
          "internalType": "int256[]",
          "name": "",
          "type": "int256[]"
        }
      ],
      "payable": false,
      "stateMutability": "view",
      "type": "function"
    }
  ],
  "bytecode": "0x608060405234801561001057600080fd5b506114db806100206000396000f3fe60806040526004361061009c5760003560e01c80636c48818e116100645780636c48818e1461035c57806376039874146103c8578063c3039365146104f7578063ded480d114610546578063e6025f5c14610599578063f16e9fae146105c45761009c565b806310554826146100a157806315c5340a1461010d578063466d847c1461017957806361df9bc3146101d6578063675c36391461028a575b600080fd5b3480156100ad57600080fd5b506100b66105f2565b6040518080602001828103825283818151815260200191508051906020019060200280838360005b838110156100f95780820151818401526020810190506100de565b505050509050019250505060405180910390f35b34801561011957600080fd5b506101226107c3565b6040518080602001828103825283818151815260200191508051906020019060200280838360005b8381101561016557808201518184015260208101905061014a565b505050509050019250505060405180910390f35b34801561018557600080fd5b506101bc6004803603604081101561019c57600080fd5b810190808035906020019092919080359060200190929190505050610992565b604051808215151515815260200191505060405180910390f35b3480156101e257600080fd5b5061020f600480360360208110156101f957600080fd5b8101908080359060200190929190505050610a4b565b6040518080602001828103825283818151815260200191508051906020019080838360005b8381101561024f578082015181840152602081019050610234565b50505050905090810190601f16801561027c5780820380516001836020036101000a031916815260200191505b509250505060405180910390f35b34801561029657600080fd5b5061035a600480360360408110156102ad57600080fd5b81019080803590602001906401000000008111156102ca57600080fd5b8201836020820111156102dc57600080fd5b803590602001918460018302840111640100000000831117156102fe57600080fd5b91908080601f016020809104026020016040519081016040528093929190818152602001838380828437600081840152601f19601f82011690508083019250505050505050919291929080359060200190929190505050610b02565b005b34801561036857600080fd5b50610371610c61565b6040518080602001828103825283818151815260200191508051906020019060200280838360005b838110156103b4578082015181840152602081019050610399565b505050509050019250505060405180910390f35b3480156103d457600080fd5b50610401600480360360208110156103eb57600080fd5b8101908080359060200190929190505050610df0565b60405180878152602001806020018681526020018573ffffffffffffffffffffffffffffffffffffffff1673ffffffffffffffffffffffffffffffffffffffff1681526020018473ffffffffffffffffffffffffffffffffffffffff1673ffffffffffffffffffffffffffffffffffffffff168152602001838152602001828103825287818151815260200191508051906020019080838360005b838110156104b757808201518184015260208101905061049c565b50505050905090810190601f1680156104e45780820380516001836020036101000a031916815260200191505b5097505050505050505060405180910390f35b34801561050357600080fd5b506105306004803603602081101561051a57600080fd5b8101908080359060200190929190505050610f04565b6040518082815260200191505060405180910390f35b34801561055257600080fd5b5061057f6004803603602081101561056957600080fd5b8101908080359060200190929190505050610f23565b604051808215151515815260200191505060405180910390f35b3480156105a557600080fd5b506105ae61105f565b6040518082815260200191505060405180910390f35b6105f0600480360360208110156105da57600080fd5b8101908080359060200190929190505050611065565b005b6060600080600190505b60015481136106a5573373ffffffffffffffffffffffffffffffffffffffff1660008083815260200190815260200160002060030160009054906101000a900473ffffffffffffffffffffffffffffffffffffffff1673ffffffffffffffffffffffffffffffffffffffff161415801561068a57504260008083815260200190815260200160002060050154105b156106985781806001019250505b80806001019150506105fc565b506060816040519080825280602002602001820160405280156106d75781602001602082028038833980820191505090505b509050600080600190505b60015481136107b9573373ffffffffffffffffffffffffffffffffffffffff1660008083815260200190815260200160002060030160009054906101000a900473ffffffffffffffffffffffffffffffffffffffff1673ffffffffffffffffffffffffffffffffffffffff161415801561077057504260008083815260200190815260200160002060050154105b156107ac576000808281526020019081526020016000206000015483838151811061079757fe5b60200260200101818152505081806001019250505b80806001019150506106e2565b5081935050505090565b6060600080600190505b6001548113610875573373ffffffffffffffffffffffffffffffffffffffff1660008083815260200190815260200160002060040160009054906101000a900473ffffffffffffffffffffffffffffffffffffffff1673ffffffffffffffffffffffffffffffffffffffff1614801561085a57504260008083815260200190815260200160002060050154115b156108685781806001019250505b80806001019150506107cd565b506060816040519080825280602002602001820160405280156108a75781602001602082028038833980820191505090505b509050600080600190505b6001548113610988573373ffffffffffffffffffffffffffffffffffffffff1660008083815260200190815260200160002060040160009054906101000a900473ffffffffffffffffffffffffffffffffffffffff1673ffffffffffffffffffffffffffffffffffffffff1614801561093f57504260008083815260200190815260200160002060050154115b1561097b576000808281526020019081526020016000206000015483838151811061096657fe5b60200260200101818152505081806001019250505b80806001019150506108b2565b5081935050505090565b60003373ffffffffffffffffffffffffffffffffffffffff1660008085815260200190815260200160002060030160009054906101000a900473ffffffffffffffffffffffffffffffffffffffff1673ffffffffffffffffffffffffffffffffffffffff16141580610a1857504260008085815260200190815260200160002060050154115b15610a265760009050610a45565b8160008085815260200190815260200160002060020181905550600190505b92915050565b60606000808381526020019081526020016000206001018054600181600116156101000203166002900480601f016020809104026020016040519081016040528092919081815260200182805460018160011615610100020316600290048015610af65780601f10610acb57610100808354040283529160200191610af6565b820191906000526020600020905b815481529060010190602001808311610ad957829003601f168201915b50505050509050919050565b600160008154809291906001019190505550610b1c611357565b6040518060c0016040528060015481526020018481526020018381526020013373ffffffffffffffffffffffffffffffffffffffff168152602001600073ffffffffffffffffffffffffffffffffffffffff16815260200160008152509050806000806001548152602001908152602001600020600082015181600001556020820151816001019080519060200190610bb69291906113b9565b506040820151816002015560608201518160030160006101000a81548173ffffffffffffffffffffffffffffffffffffffff021916908373ffffffffffffffffffffffffffffffffffffffff16021790555060808201518160040160006101000a81548173ffffffffffffffffffffffffffffffffffffffff021916908373ffffffffffffffffffffffffffffffffffffffff16021790555060a08201518160050155905050505050565b6060600080600190505b6001548113610cf3573373ffffffffffffffffffffffffffffffffffffffff1660008083815260200190815260200160002060030160009054906101000a900473ffffffffffffffffffffffffffffffffffffffff1673ffffffffffffffffffffffffffffffffffffffff161415610ce65781806001019250505b8080600101915050610c6b565b50606081604051908082528060200260200182016040528015610d255781602001602082028038833980820191505090505b509050600080600190505b6001548113610de6573373ffffffffffffffffffffffffffffffffffffffff1660008083815260200190815260200160002060030160009054906101000a900473ffffffffffffffffffffffffffffffffffffffff1673ffffffffffffffffffffffffffffffffffffffff161415610dd95760008082815260200190815260200160002060000154838381518110610dc457fe5b60200260200101818152505081806001019250505b8080600101915050610d30565b5081935050505090565b6000602052806000526040600020600091509050806000015490806001018054600181600116156101000203166002900480601f016020809104026020016040519081016040528092919081815260200182805460018160011615610100020316600290048015610ea25780601f10610e7757610100808354040283529160200191610ea2565b820191906000526020600020905b815481529060010190602001808311610e8557829003601f168201915b5050505050908060020154908060030160009054906101000a900473ffffffffffffffffffffffffffffffffffffffff16908060040160009054906101000a900473ffffffffffffffffffffffffffffffffffffffff16908060050154905086565b6000806000838152602001908152602001600020600201549050919050565b60003373ffffffffffffffffffffffffffffffffffffffff1660008084815260200190815260200160002060030160009054906101000a900473ffffffffffffffffffffffffffffffffffffffff1673ffffffffffffffffffffffffffffffffffffffff16141580610fa957504260008084815260200190815260200160002060050154115b15610fb7576000905061105a565b600080838152602001908152602001600020600080820160009055600182016000610fe29190611439565b60028201600090556003820160006101000a81549073ffffffffffffffffffffffffffffffffffffffff02191690556004820160006101000a81549073ffffffffffffffffffffffffffffffffffffffff02191690556005820160009055505060016000815480929190600190039190505550600190505b919050565b60015481565b61106d611357565b6000808381526020019081526020016000206040518060c001604052908160008201548152602001600182018054600181600116156101000203166002900480601f01602080910402602001604051908101604052809291908181526020018280546001816001161561010002031660029004801561112d5780601f106111025761010080835404028352916020019161112d565b820191906000526020600020905b81548152906001019060200180831161111057829003601f168201915b50505050508152602001600282015481526020016003820160009054906101000a900473ffffffffffffffffffffffffffffffffffffffff1673ffffffffffffffffffffffffffffffffffffffff1673ffffffffffffffffffffffffffffffffffffffff1681526020016004820160009054906101000a900473ffffffffffffffffffffffffffffffffffffffff1673ffffffffffffffffffffffffffffffffffffffff1673ffffffffffffffffffffffffffffffffffffffff16815260200160058201548152505090504260008084815260200190815260200160002060050154118061127b57503373ffffffffffffffffffffffffffffffffffffffff1660008084815260200190815260200160002060040160009054906101000a900473ffffffffffffffffffffffffffffffffffffffff1673ffffffffffffffffffffffffffffffffffffffff16145b156112865750611354565b806060015173ffffffffffffffffffffffffffffffffffffffff166108fc670de0b6b3a76400008360400151029081150290604051600060405180830381858888f193505050501580156112de573d6000803e3d6000fd5b503360008084815260200190815260200160002060040160006101000a81548173ffffffffffffffffffffffffffffffffffffffff021916908373ffffffffffffffffffffffffffffffffffffffff1602179055506224ea00420160008084815260200190815260200160002060050181905550505b50565b6040518060c00160405280600081526020016060815260200160008152602001600073ffffffffffffffffffffffffffffffffffffffff168152602001600073ffffffffffffffffffffffffffffffffffffffff168152602001600081525090565b828054600181600116156101000203166002900490600052602060002090601f016020900481019282601f106113fa57805160ff1916838001178555611428565b82800160010185558215611428579182015b8281111561142757825182559160200191906001019061140c565b5b5090506114359190611481565b5090565b50805460018160011615610100020316600290046000825580601f1061145f575061147e565b601f01602090049060005260206000209081019061147d9190611481565b5b50565b6114a391905b8082111561149f576000816000905550600101611487565b5090565b9056fea265627a7a72315820469d9a2bbc40588978f6434cd6bc424a49254d493e3a0a73751df9539acd990b64736f6c63430005100032",
  "source": "// SPDX-License-Identifier: GPL-3.0\r\npragma solidity ^0.5.8;\r\n\r\ncontract RentContract\r\n{\r\n    struct House \r\n    {\r\n        int256 id;\r\n        string houseAddress;\r\n        uint256 rentCost;\r\n        address payable ownerAddress;\r\n        address renterAddress;\r\n        uint256 rentEndsAt;\r\n    }\r\n\r\n    mapping(int256 => House) public Houses;\r\n\r\n    int256 public HousesCount;\r\n\r\n    function GetHouseAddress(int256 id) public view returns (string memory)\r\n    {\r\n        return Houses[id].houseAddress;\r\n    }\r\n\r\n    function GetRentCost(int256 id) public view returns (int)\r\n    {\r\n        return int(Houses[id].rentCost);\r\n    }\r\n\r\n    \r\n    function AddHouse(string memory houseAddress, uint256 rentCost) public\r\n    {\r\n        HousesCount++;\r\n\r\n        House memory house = House(HousesCount, houseAddress, rentCost, msg.sender, address(0), 0);\r\n        \r\n        Houses[HousesCount] = house;\r\n    }\r\n\r\n    function UpdateCost(int256 id, uint256 newCost) public returns (bool)\r\n    {\r\n        if (Houses[id].ownerAddress != msg.sender || Houses[id].rentEndsAt > block.timestamp)\r\n        {\r\n            return false;\r\n        }\r\n\r\n        Houses[id].rentCost = newCost;\r\n\r\n        return true;\r\n    }\r\n\r\n    function RemoveHouse(int256 id) public returns (bool)\r\n    {\r\n        if (Houses[id].ownerAddress != msg.sender || Houses[id].rentEndsAt > block.timestamp)\r\n        {\r\n            return false;\r\n        }\r\n\r\n        delete Houses[id];\r\n\r\n        HousesCount--;\r\n\r\n        return true;\r\n    }\r\n    \r\n    function RentFrom(int256 id) public payable\r\n    {\r\n        House memory houseToRent = Houses[id];\r\n        \r\n        if (Houses[id].rentEndsAt > block.timestamp || Houses[id].renterAddress == msg.sender)\r\n        {\r\n            return;\r\n        }       \r\n\r\n        houseToRent.ownerAddress.transfer(houseToRent.rentCost * 10**18);\r\n        \r\n        Houses[id].renterAddress = msg.sender;\r\n        \r\n        Houses[id].rentEndsAt = now + (4 * 1 weeks);\r\n    }\r\n\r\n    function AvailableHouses() public view returns(int256[] memory) \r\n    {\r\n        uint256 resultCount;\r\n\r\n        for (int i = 1; i <= HousesCount; i++)\r\n        {\r\n            if (Houses[i].ownerAddress != msg.sender && Houses[i].rentEndsAt < block.timestamp) {\r\n                resultCount++;\r\n            }\r\n        }\r\n\r\n        int256[] memory result = new int256[](resultCount);\r\n        uint256 j;\r\n\r\n        for (int i = 1; i <= HousesCount; i++) \r\n        {\r\n            if (Houses[i].ownerAddress != msg.sender && Houses[i].rentEndsAt < block.timestamp) {\r\n                result[j] = Houses[i].id;\r\n                j++;\r\n            }\r\n        }\r\n        return result; \r\n    }\r\n\r\n    function GetOwnedHouses() public view returns(int256[] memory) \r\n    {\r\n        uint256 resultCount;\r\n\r\n        for (int i = 1; i <= HousesCount; i++)\r\n        {\r\n            if (Houses[i].ownerAddress == msg.sender) {\r\n                resultCount++;\r\n            }\r\n        }\r\n\r\n        int256[] memory result = new int256[](resultCount);\r\n        uint256 j;\r\n\r\n        for (int i = 1; i <= HousesCount; i++) \r\n        {\r\n            if (Houses[i].ownerAddress == msg.sender) {\r\n                result[j] = Houses[i].id;\r\n                j++;\r\n            }\r\n        }\r\n        return result; \r\n    }\r\n\r\n    function GetRentedHouses() public view returns(int256[] memory) \r\n    {\r\n        uint256 resultCount;\r\n\r\n        for (int i = 1; i <= HousesCount; i++)\r\n        {\r\n            if (Houses[i].renterAddress == msg.sender && Houses[i].rentEndsAt > block.timestamp) {\r\n                resultCount++;\r\n            }\r\n        }\r\n\r\n        int256[] memory result = new int256[](resultCount);\r\n        uint256 j;\r\n\r\n        for (int i = 1; i <= HousesCount; i++) \r\n        {\r\n            if (Houses[i].renterAddress == msg.sender && Houses[i].rentEndsAt > block.timestamp) {\r\n                result[j] = Houses[i].id;\r\n                j++;\r\n            }\r\n        }\r\n        return result; \r\n    }\r\n}",
  "sourcePath": "C:\\Users\\karol\\personal\\Blockchain\\contracts\\RentContract.sol",
  "compiler": {
    "name": "solc",
    "version": "0.5.16+commit.9c3226ce.Emscripten.clang"
  },
  "schemaVersion": "3.4.3",
  "updatedAt": "2021-12-15T08:53:23.455Z",
  "networkType": "ethereum",
  "devdoc": {
    "methods": {}
  },
  "userdoc": {
    "methods": {}
  }
}