{
  "contractName": "RentContract",
  "abi": [
    {
      "constant": true,
      "inputs": [
        {
          "internalType": "int256",
          "name": "",
          "type": "int256"
        }
      ],
      "name": "Houses",
      "outputs": [
        {
          "internalType": "int256",
          "name": "id",
          "type": "int256"
        },
        {
          "internalType": "string",
          "name": "_address",
          "type": "string"
        },
        {
          "internalType": "uint256",
          "name": "_rentCost",
          "type": "uint256"
        },
        {
          "internalType": "bool",
          "name": "_isRented",
          "type": "bool"
        },
        {
          "internalType": "address payable",
          "name": "_ownerAddress",
          "type": "address"
        },
        {
          "internalType": "address",
          "name": "_renterAddress",
          "type": "address"
        },
        {
          "internalType": "uint256",
          "name": "_rentEndsAt",
          "type": "uint256"
        }
      ],
      "payable": false,
      "stateMutability": "view",
      "type": "function"
    },
    {
      "constant": true,
      "inputs": [],
      "name": "HousesCount",
      "outputs": [
        {
          "internalType": "int256",
          "name": "",
          "type": "int256"
        }
      ],
      "payable": false,
      "stateMutability": "view",
      "type": "function"
    },
    {
      "constant": false,
      "inputs": [
        {
          "internalType": "string",
          "name": "houseAddress",
          "type": "string"
        },
        {
          "internalType": "uint256",
          "name": "_rentCost",
          "type": "uint256"
        }
      ],
      "name": "AddHouse",
      "outputs": [],
      "payable": false,
      "stateMutability": "nonpayable",
      "type": "function"
    },
    {
      "constant": false,
      "inputs": [
        {
          "internalType": "int256",
          "name": "id",
          "type": "int256"
        },
        {
          "internalType": "uint256",
          "name": "newCost",
          "type": "uint256"
        }
      ],
      "name": "UpdateCost",
      "outputs": [
        {
          "internalType": "bool",
          "name": "",
          "type": "bool"
        }
      ],
      "payable": false,
      "stateMutability": "nonpayable",
      "type": "function"
    },
    {
      "constant": false,
      "inputs": [
        {
          "internalType": "int256",
          "name": "id",
          "type": "int256"
        }
      ],
      "name": "RemoveHouse",
      "outputs": [
        {
          "internalType": "bool",
          "name": "",
          "type": "bool"
        }
      ],
      "payable": false,
      "stateMutability": "nonpayable",
      "type": "function"
    },
    {
      "constant": false,
      "inputs": [
        {
          "internalType": "int256",
          "name": "id",
          "type": "int256"
        }
      ],
      "name": "RentFrom",
      "outputs": [],
      "payable": true,
      "stateMutability": "payable",
      "type": "function"
    }
  ],
  "bytecode": "0x608060405234801561001057600080fd5b50610c5f806100206000396000f3fe6080604052600436106100555760003560e01c8063466d847c1461005a578063675c3639146100b75780637603987414610189578063ded480d1146102c3578063e6025f5c14610316578063f16e9fae14610341575b600080fd5b34801561006657600080fd5b5061009d6004803603604081101561007d57600080fd5b81019080803590602001909291908035906020019092919050505061036f565b604051808215151515815260200191505060405180910390f35b3480156100c357600080fd5b50610187600480360360408110156100da57600080fd5b81019080803590602001906401000000008111156100f757600080fd5b82018360208201111561010957600080fd5b8035906020019184600183028401116401000000008311171561012b57600080fd5b91908080601f016020809104026020016040519081016040528093929190818152602001838380828437600081840152601f19601f82011690508083019250505050505050919291929080359060200190929190505050610433565b005b34801561019557600080fd5b506101c2600480360360208110156101ac57600080fd5b81019080803590602001909291905050506105bb565b6040518088815260200180602001878152602001861515151581526020018573ffffffffffffffffffffffffffffffffffffffff1673ffffffffffffffffffffffffffffffffffffffff1681526020018473ffffffffffffffffffffffffffffffffffffffff1673ffffffffffffffffffffffffffffffffffffffff168152602001838152602001828103825288818151815260200191508051906020019080838360005b83811015610282578082015181840152602081019050610267565b50505050905090810190601f1680156102af5780820380516001836020036101000a031916815260200191505b509850505050505050505060405180910390f35b3480156102cf57600080fd5b506102fc600480360360208110156102e657600080fd5b81019080803590602001909291905050506106e2565b604051808215151515815260200191505060405180910390f35b34801561032257600080fd5b5061032b61082a565b6040518082815260200191505060405180910390f35b61036d6004803603602081101561035757600080fd5b8101908080359060200190929190505050610830565b005b60003373ffffffffffffffffffffffffffffffffffffffff1660008085815260200190815260200160002060030160019054906101000a900473ffffffffffffffffffffffffffffffffffffffff1673ffffffffffffffffffffffffffffffffffffffff16141580610400575060008084815260200190815260200160002060030160009054906101000a900460ff165b1561040e576000905061042d565b8160008085815260200190815260200160002060020181905550600190505b92915050565b60016000815480929190600101919050555061044d610ad2565b6040518060e0016040528060015481526020018481526020018381526020016000151581526020013373ffffffffffffffffffffffffffffffffffffffff168152602001600073ffffffffffffffffffffffffffffffffffffffff168152602001600081525090508060008060015481526020019081526020016000206000820151816000015560208201518160010190805190602001906104f0929190610b3d565b506040820151816002015560608201518160030160006101000a81548160ff02191690831515021790555060808201518160030160016101000a81548173ffffffffffffffffffffffffffffffffffffffff021916908373ffffffffffffffffffffffffffffffffffffffff16021790555060a08201518160040160006101000a81548173ffffffffffffffffffffffffffffffffffffffff021916908373ffffffffffffffffffffffffffffffffffffffff16021790555060c08201518160050155905050505050565b6000602052806000526040600020600091509050806000015490806001018054600181600116156101000203166002900480601f01602080910402602001604051908101604052809291908181526020018280546001816001161561010002031660029004801561066d5780601f106106425761010080835404028352916020019161066d565b820191906000526020600020905b81548152906001019060200180831161065057829003601f168201915b5050505050908060020154908060030160009054906101000a900460ff16908060030160019054906101000a900473ffffffffffffffffffffffffffffffffffffffff16908060040160009054906101000a900473ffffffffffffffffffffffffffffffffffffffff16908060050154905087565b60003373ffffffffffffffffffffffffffffffffffffffff1660008084815260200190815260200160002060030160019054906101000a900473ffffffffffffffffffffffffffffffffffffffff1673ffffffffffffffffffffffffffffffffffffffff16141580610773575060008083815260200190815260200160002060030160009054906101000a900460ff165b156107815760009050610825565b6000808381526020019081526020016000206000808201600090556001820160006107ac9190610bbd565b60028201600090556003820160006101000a81549060ff02191690556003820160016101000a81549073ffffffffffffffffffffffffffffffffffffffff02191690556004820160006101000a81549073ffffffffffffffffffffffffffffffffffffffff021916905560058201600090555050600190505b919050565b60015481565b610838610ad2565b6000808381526020019081526020016000206040518060e001604052908160008201548152602001600182018054600181600116156101000203166002900480601f0160208091040260200160405190810160405280929190818152602001828054600181600116156101000203166002900480156108f85780601f106108cd576101008083540402835291602001916108f8565b820191906000526020600020905b8154815290600101906020018083116108db57829003601f168201915b50505050508152602001600282015481526020016003820160009054906101000a900460ff161515151581526020016003820160019054906101000a900473ffffffffffffffffffffffffffffffffffffffff1673ffffffffffffffffffffffffffffffffffffffff1673ffffffffffffffffffffffffffffffffffffffff1681526020016004820160009054906101000a900473ffffffffffffffffffffffffffffffffffffffff1673ffffffffffffffffffffffffffffffffffffffff1673ffffffffffffffffffffffffffffffffffffffff1681526020016005820154815250509050600073ffffffffffffffffffffffffffffffffffffffff168160a0015173ffffffffffffffffffffffffffffffffffffffff1614610a1c5750610acf565b806080015173ffffffffffffffffffffffffffffffffffffffff166108fc670de0b6b3a76400008360400151029081150290604051600060405180830381858888f19350505050158015610a74573d6000803e3d6000fd5b50338160a0019073ffffffffffffffffffffffffffffffffffffffff16908173ffffffffffffffffffffffffffffffffffffffff168152505060018160600190151590811515815250506224ea0042018160c0018181525050505b50565b6040518060e00160405280600081526020016060815260200160008152602001600015158152602001600073ffffffffffffffffffffffffffffffffffffffff168152602001600073ffffffffffffffffffffffffffffffffffffffff168152602001600081525090565b828054600181600116156101000203166002900490600052602060002090601f016020900481019282601f10610b7e57805160ff1916838001178555610bac565b82800160010185558215610bac579182015b82811115610bab578251825591602001919060010190610b90565b5b509050610bb99190610c05565b5090565b50805460018160011615610100020316600290046000825580601f10610be35750610c02565b601f016020900490600052602060002090810190610c019190610c05565b5b50565b610c2791905b80821115610c23576000816000905550600101610c0b565b5090565b9056fea265627a7a723158206b328d3df935fb1a0ec3658b3e87a6c6e6e098677ed61a3068406c779f1099b364736f6c63430005100032",
  "source": "// SPDX-License-Identifier: GPL-3.0\r\npragma solidity ^0.5.8;\r\n\r\ncontract RentContract\r\n{\r\n    struct House \r\n    {\r\n        int256 id;\r\n        string _address;\r\n        uint256 _rentCost;\r\n        bool _isRented;\r\n        address payable _ownerAddress;\r\n        address _renterAddress;\r\n        uint256 _rentEndsAt;\r\n    }\r\n\r\n    mapping(int256 => House) public Houses;\r\n\r\n    int256 public HousesCount;\r\n    \r\n    function AddHouse(string memory houseAddress, uint256 _rentCost) public\r\n    {\r\n        HousesCount++;\r\n\r\n        House memory house = House(HousesCount, houseAddress, _rentCost, false, msg.sender, address(0), 0);\r\n        \r\n        Houses[HousesCount] = house;\r\n    }\r\n\r\n    function UpdateCost(int256 id, uint256 newCost) public returns (bool)\r\n    {\r\n        if (Houses[id]._ownerAddress != msg.sender || Houses[id]._isRented)\r\n        {\r\n            return false;\r\n        }\r\n\r\n        Houses[id]._rentCost = newCost;\r\n\r\n        return true;\r\n    }\r\n\r\n    function RemoveHouse(int256 id) public returns (bool)\r\n    {\r\n        if (Houses[id]._ownerAddress != msg.sender || Houses[id]._isRented)\r\n        {\r\n            return false;\r\n        }\r\n\r\n        delete Houses[id];\r\n\r\n        return true;\r\n    }\r\n    \r\n    function RentFrom(int256 id) public payable\r\n    {\r\n        House memory houseToRent = Houses[id];\r\n        \r\n        if (houseToRent._renterAddress != address(0))\r\n        {\r\n            return;\r\n        }\r\n        \r\n        //payment\r\n        houseToRent._ownerAddress.transfer(houseToRent._rentCost * 10**18);\r\n        \r\n        houseToRent._renterAddress = msg.sender;\r\n        \r\n        houseToRent._isRented = true;\r\n\r\n        houseToRent._rentEndsAt = block.timestamp + (4 * 7 days);       \r\n    }\r\n}",
  "sourcePath": "C:\\Users\\karol\\personal\\Blockchain\\contracts\\RentContract.sol",
  "compiler": {
    "name": "solc",
    "version": "0.5.16+commit.9c3226ce.Emscripten.clang"
  },
  "schemaVersion": "3.4.3",
  "updatedAt": "2021-12-11T19:14:32.838Z",
  "networkType": "ethereum",
  "devdoc": {
    "methods": {}
  },
  "userdoc": {
    "methods": {}
  }
}